:020000040800F2
:1000000000000220815100080D4E00080F4E00082C
:10001000114E0008134E0008154E000800000000A5
:10002000000000000000000000000000113F000878
:10003000174E000800000000B13F000815400008FE
:10004000D1510008D1510008D1510008D151000808
:10005000D1510008D1510008D1510008D1510008F8
:10006000D1510008D1510008D1510008D1510008E8
:10007000D1510008D1510008D1510008D1510008D8
:10008000D1510008D1510008D1510008D1510008C8
:10009000D1510008D1510008D1510008D1510008B8
:1000A000194E0008294E0008394E0008494E000834
:1000B000D1510008D1510008D1510008D151000898
:1000C000D1510008D1510008D1510008D151000888
:1000D000D1510008594E0008D1510008D1510008F3
:1000E000D1510008D1510008D1510008D151000868
:1000F000D1510008D1510008D1510008D151000858
:10010000D1510008D1510008D1510008D151000847
:10011000D1510008D1510008694E0008D1510008A2
:10012000D1510008D1510008D1510008D151000827
:10013000D1510008D1510008D1510008D151000817
:10014000D1510008D1510008D1510008D151000807
:10015000D1510008D1510008794E0008D151000852
:10016000D1510008D1510008D1510008D1510008E7
:10017000D1510008D1510008D15100080000000001
:08018000D1510008D151000823
:1001900010B5054C237833B9044B13B10448AFF3C1
:1001A00000800123237010BD4404002000000000E3
:1001B000C455000808B5034B1BB103490348AFF30E
:1001C000008008BD0000000048040020C45500085D
:1001D00081F0004102E000BF83F0004330B54FEAF8
:1001E00041044FEA430594EA050F08BF90EA020F65
:1001F0001FBF54EA000C55EA020C7FEA645C7FEAF8
:10020000655C00F0E2804FEA5454D4EB5555B8BF1A
:100210006D420CDD2C4480EA020281EA030382EA8B
:10022000000083EA010180EA020281EA0303362D1D
:1002300088BF30BD11F0004F4FEA01314FF4801CF0
:100240004CEA113102D0404261EB410113F0004F02
:100250004FEA03334CEA133302D0524263EB4303B9
:1002600094EA050F00F0A780A4F10104D5F1200E57
:100270000DDB02FA0EFC22FA05F2801841F10001B2
:1002800003FA0EF2801843FA05F359410EE0A5F186
:1002900020050EF1200E012A03FA0EFC28BF4CF0B7
:1002A000020C43FA05F3C01851EBE37101F000456D
:1002B00007D54FF0000EDCF1000C7EEB00006EEB7A
:1002C0000101B1F5801F1BD3B1F5001F0CD3490804
:1002D0005FEA30004FEA3C0C04F101044FEA44525B
:1002E00012F5800F80F09A80BCF1004F08BF5FEAE2
:1002F000500C50F1000041EB045141EA050130BDC2
:100300005FEA4C0C404141EB010111F4801FA4F164
:100310000104E9D191F0000F04BF01460020B1FAB9
:1003200081F308BF2033A3F10B03B3F120020CDAF1
:100330000C3208DD02F1140CC2F10C0201FA0CF0CF
:1003400021FA02F10CE002F11402D8BFC2F1200C34
:1003500001FA02F120FA0CFCDCBF41EA0C019040EA
:10036000E41AA2BF01EB0451294330BD6FEA040433
:100370001F3C1CDA0C340EDC04F11404C4F120021E
:1003800020FA04F001FA02F340EA030021FA04F330
:1003900045EA030130BDC4F10C04C4F1200220FA87
:1003A00002F001FA04F340EA0300294630BD21FAC5
:1003B00004F0294630BD94F0000F83F4801306BF8B
:1003C00081F480110134013D4EE77FEA645C18BF7F
:1003D0007FEA655C29D094EA050F08BF90EA020F16
:1003E00005D054EA000C04BF1946104630BD91EA0E
:1003F000030F1EBF0021002030BD5FEA545C05D111
:100400004000494128BF41F0004130BD14F580044F
:100410003CBF01F5801130BD01F0004545F0FE41C3
:1004200041F470014FF0000030BD7FEA645C1ABFF8
:10043000194610467FEA655C1CBF0B46024650EA2F
:10044000013406BF52EA033591EA030F41F400215B
:1004500030BD00BF90F0000F04BF0021704730B5E1
:100460004FF4806404F132044FF000054FF00001B6
:1004700050E700BF90F0000F04BF0021704730B577
:100480004FF4806404F1320410F0004548BF40424C
:100490004FF000013EE700BF42004FEAE2014FEAA1
:1004A00031014FEA02701FBF12F07F4393F07F4F7C
:1004B00081F06051704732F07F4208BF704793F07F
:1004C0007F4F04BF41F40021704730B54FF4607492
:1004D00001F0004521F000411CE700BF50EA010295
:1004E00008BF704730B54FF000050AE050EA01023E
:1004F00008BF704730B511F0004502D5404261EBAE
:1005000041014FF4806404F132045FEA915C3FF4EE
:10051000D8AE4FF003025FEADC0C18BF03325FEA8B
:10052000DC0C18BF033202EBDC02C2F1200300FA3C
:1005300003FC20FA02F001FA03FE40EA0E0021FA61
:1005400002F11444BDE600BF70B54FF0FF0C4CF44F
:10055000E06C1CEA11541DBF1CEA135594EA0C0F01
:1005600095EA0C0F00F0DEF82C4481EA030621EA3C
:100570004C5123EA4C5350EA013518BF52EA033577
:1005800041F4801143F4801338D0A0FB02CE4FF029
:100590000005E1FB02E506F00042E0FB03E54FF059
:1005A0000006E1FB03569CF0000F18BF4EF0010E51
:1005B000A4F1FF04B6F5007F64F5407404D25FEA4D
:1005C0004E0E6D4146EB060642EAC62141EA555100
:1005D0004FEAC52040EA5E504FEACE2EB4F1FD0C42
:1005E00088BFBCF5E06F1ED8BEF1004F08BF5FEAC0
:1005F000500E50F1000041EB045170BD06F0004672
:1006000046EA010140EA020081EA0301B4EB5C041E
:10061000C2BFD4EB0C0541EA045170BD41F4801116
:100620004FF0000E013C00F3AB8014F1360FDEBF3B
:10063000002001F0004170BDC4F10004203C35DA17
:100640000C341BDC04F11404C4F1200500FA05F39A
:1006500020FA04F001FA05F240EA020001F000423B
:1006600021F0004110EBD37021FA04F642EB0601B1
:100670005EEA430E08BF20EAD37070BDC4F10C04DB
:10068000C4F1200500FA04F320FA05F001FA04F29F
:1006900040EA020001F0004110EBD37041F100018B
:1006A0005EEA430E08BF20EAD37070BDC4F1200596
:1006B00000FA05F24EEA020E20FA04F301FA05F2FE
:1006C00043EA020321FA04F001F0004121FA04F2A6
:1006D00020EA020000EBD3705EEA430E08BF20EA76
:1006E000D37070BD94F0000F0FD101F000464000B0
:1006F00041EB010111F4801F08BF013CF7D041EA32
:10070000060195F0000F18BF704703F00046520035
:1007100043EB030313F4801F08BF013DF7D043EA06
:100720000603704794EA0C0F0CEA135518BF95EABC
:100730000C0F0CD050EA410618BF52EA4306D1D143
:1007400081EA030101F000414FF0000070BD50EA62
:10075000410606BF1046194652EA430619D094EAEC
:100760000C0F02D150EA013613D195EA0C0F05D1D6
:1007700052EA03361CBF104619460AD181EA03012A
:1007800001F0004141F0FE4141F470014FF00000E2
:1007900070BD41F0FE4141F4780170BD70B54FF07D
:1007A000FF0C4CF4E06C1CEA11541DBF1CEA1355FD
:1007B00094EA0C0F95EA0C0F00F0A7F8A4EB0504DF
:1007C00081EA030E52EA03354FEA013100F08880D6
:1007D0004FEA03334FF0805545EA131343EA12639F
:1007E0004FEA022245EA111545EA10654FEA002654
:1007F0000EF000419D4208BF964244F1FD0404F50D
:10080000407402D25B084FEA3202B61A65EB030568
:100810005B084FEA32024FF480104FF4002CB6EB25
:10082000020E75EB030E22BFB61A754640EA0C00A5
:100830005B084FEA3202B6EB020E75EB030E22BFE5
:10084000B61A754640EA5C005B084FEA3202B6EB26
:10085000020E75EB030E22BFB61A754640EA9C00E5
:100860005B084FEA3202B6EB020E75EB030E22BFB5
:10087000B61A754640EADC0055EA060E18D04FEA73
:10088000051545EA16754FEA06164FEAC30343EA13
:1008900052734FEAC2025FEA1C1CC0D111F4801FE0
:1008A0000BD141EA00014FF000004FF0004CB6E7D9
:1008B00011F4801F04BF01430020B4F1FD0C88BF78
:1008C000BCF5E06F3FF6AFAEB5EB030C04BFB6EB83
:1008D000020C5FEA500C50F1000041EB045170BD76
:1008E0000EF0004E4EEA113114EB5C04C2BFD4EBA3
:1008F0000C0541EA045170BD41F480114FF0000E27
:10090000013C90E645EA060E8DE60CEA135594EAA2
:100910000C0F08BF95EA0C0F3FF43BAF94EA0C0FA5
:100920000AD150EA01347FF434AF95EA0C0F7FF41A
:1009300025AF104619462CE795EA0C0F06D152EA6E
:1009400003353FF4FDAE1046194622E750EA410652
:1009500018BF52EA43067FF4C5AE50EA41047FF463
:100960000DAF52EA43057FF4EBAE12E74FEA4102C6
:10097000B2F1E04324BFB3F5001CDCF1FE5C0DD9FD
:1009800001F0004C4FEAC0024CEA5070B2F1004F47
:1009900040EB830008BF20F00100704711F0804F4A
:1009A00021D113F13872BCBF01F00040704741F40F
:1009B00080114FEA5252C2F11802C2F1200C10FA13
:1009C0000CF320FA02F018BF40F001004FEAC123F7
:1009D0004FEAD32303FA0CFC40EA0C0023FA02F39B
:1009E0004FEA4303CCE77FEA625307D150EA013371
:1009F0001EBF4FF0FE4040F44000704701F0004041
:100A000040F0FE4040F40000704700BF53B94AB9BF
:100A1000002908BF00281CBF4FF0FF314FF0FF3006
:100A200001F0F8B8ADF1080C6DE904CE00F006F85D
:100A3000DDF804E0DDE9022304B070472DE9F0475A
:100A4000089E04468846002B4BD18A42154667D93A
:100A5000B2FA82F24AB1C2F1200701FA02F320FA97
:100A600007F7954047EA030894404FEA154E230CD8
:100A7000B8FBFEF71FFA85FC0EFB178843EA084314
:100A800007FB0CF1994209D9EB1807F1FF3080F010
:100A90001B81994240F21881023F2B445B1AA4B299
:100AA000B3FBFEF00EFB103344EA034400FB0CFCE6
:100AB000A44509D92C1900F1FF3380F00781A44522
:100AC00040F2048102382C4440EA0740A4EB0C04B5
:100AD00000271EB1D4400023C6E900433946BDE8D3
:100AE000F0878B4209D9002E00F0EB800027C6E981
:100AF000000138463946BDE8F087B3FA83F7002F86
:100B000047D18B4202D3824200F2FA80841A61EB11
:100B1000030301209846002EE0D0C6E90048DDE737
:100B200002B9FFDEB2FA82F2002A40F08F80491B40
:100B30004FEA154E1FFA85F80127B1FBFEFC230C86
:100B40000EFB1C1143EA014308FB0CF1994207D943
:100B5000EB180CF1FF3002D2994200F2CD808446AE
:100B6000591AA3B2B1FBFEF00EFB101443EA044481
:100B700008FB00F8A04507D92C1900F1FF3302D279
:100B8000A04500F2B6801846A4EB080440EA0C40E9
:100B90009FE7C7F1200CBB4022FA0CFE4EEA030E81
:100BA00001FA07F420FA0CF521FA0CF34FEA1E487B
:100BB0002543B3FBF8F92C0C08FB19331FFA8EFA06
:100BC00044EA034309FB0AF49C4202FA07F200FAE2
:100BD00007F10BD91EEB030309F1FF3080F087808A
:100BE0009C4240F28480A9F1020973441B1BADB200
:100BF000B3FBF8F008FB103345EA034400FB0AFAA4
:100C0000A24508D91EEB040400F1FF336BD2A245C4
:100C100069D90238744440EA0940A0FB0289A4EB78
:100C20000A044C45C2464B4654D351D0002E69D0DD
:100C3000B1EB0A0564EB030404FA0CFCFD40FC4034
:100C40004CEA0505C6E90054002747E7C2F1200336
:100C500020FA03F7954001FA02F021FA03F34FEA74
:100C6000154E3843010CB3FBFEF71FFA85F80EFB57
:100C7000173341EA034107FB08F38B4204FA02F4FD
:100C800007D9691807F1FF3C2FD28B422DD9023FBB
:100C90002944CB1A81B2B3FBFEF00EFB103341EABC
:100CA000034100FB08F38B4207D9691800F1FF3CB0
:100CB00017D28B4215D902382944C91A40EA07478E
:100CC0003BE73746304609E70746E7E61846FBE6C6
:100CD0004145ABD2B8EB020A69EB0E02013813466C
:100CE000A4E76046E9E7184695E76746D1E78146FD
:100CF0007CE702382C4447E7ACF1020C2B442FE789
:100D0000384608E73746E9E603685A004CBF43F027
:100D1000004323F000431844704700BF61B32DE93E
:100D2000F84F01F1FF3A90460646D146002707EBFF
:100D3000090404EBD4746410E50071190846FFF748
:100D4000E3FFA245834605F10800304409D0FFF7D0
:100D5000DBFFC34500F1FF3005D8404509D2671CD1
:100D6000E5E7C34505D9A74202D004F1FF39DEE724
:100D700000210846BDE8F88F08467047012807D0D3
:100D8000022807D0044B00280CBF184600207047EB
:100D90000248704702487047691400086D14000843
:100DA0007114000830B5254B83B004468D1E4BB33B
:100DB00001A92846AFF30080F0B101992A46FFF758
:100DC000ADFF0146C0B1FFF79FFF4B68A064012B48
:100DD0002ED0002B01F1040026DBFFF795FF002346
:100DE000C4E913030368002B12DBFFF78DFF002318
:100DF0002061184603B030BD002323610923184643
:100E000003B030BD0E490F48091AC9100191D5E74A
:100E1000C3F30360FFF7B2FF002814BF00230923C8
:100E20002061184603B030BD0123C4E91303D9E79C
:100E3000002323610523184603B030BD00000000E5
:100E400058570008805600080368DA0710B50446B2
:100E500006D49B0700F1480009D500F05FFC236829
:100E6000590709D51A070ED5DB0613D510BD00F0BA
:100E70004DFC23685907F5D404F1D00000F056FC6E
:100E800023681A07F0D404F5A87000F057FC236813
:100E9000DB06EBD404F5E870BDE8104000F092BC2E
:100EA000036803B103441846704700BF0920704728
:100EB000704700BF70B504460D4608E02B6C6361B7
:100EC0002A462369214601209847082808D1296C21
:100ED0002046FFF767FF06460028EFD004F01EFA11
:100EE0000728FBD13046296CFFF7E2FF281D00F0F0
:100EF00001FC00BF2DE9F0470C1D054617460FCC3D
:100F0000ADF5727D03AE0FC60FCC0FC60FCC0FC66A
:100F100094E80F0002ACD5F80C80D5F8189086E85C
:100F20000F000023236021E0236C6B614FF4F0720B
:100F300021467AA800F070FE2B697AAA294630462D
:100F40009847889BCDE900498246636431462B4629
:100F50002A460120C0470746F8B94FF4F0727AA933
:100F6000204600F059FEBAF1080F1CD1216C28462A
:100F7000FFF718FF002F08BF0926074618BF0A26EB
:100F80000028D1D0A36B46F01001CDE900492A46D4
:100F9000636401202B46C04700B1092738460DF590
:100FA000727DBDE8F087BAF1070FF6D13846216CA3
:100FB000FFF77EFF03A800F09DFB00BF406C704769
:100FC000F0B5CB6B0B640D1D0F4606460FCDF9B087
:100FD00001AC0FC40FCD0FC40FCD0FC495E80F00A7
:100FE0004FF0FF3584E80F00009506E033696A464C
:100FF000314698470828044608D110993046FFF733
:10100000D1FE0028F2D0092079B0F0BD6846FFF784
:101010001BFF062CF7D139463046FFF74BFF00BFC8
:1010200030B4DD6BC160826119461D64002230BCA2
:1010300060E700BF70B5C66843690B64BEB9036959
:101040000A4604460D46014602209847072807D065
:10105000082803D129462046FFF72CFF04F05EF94B
:101060003046296CFFF724FF281D00F043FB0122C6
:10107000FFF740FF04F052F9C2681AB1CA6B0A6464
:10108000002237E79CE700BF704700BF836813B1B9
:101090000146012018477047042907D8DFE801F00E
:1010A0000308060808000BB90F2A03D9022070476D
:1010B0000120704700EB820218465368009A1360C3
:1010C000704700BF10B584B0002303AC0A460094FB
:1010D0001946FFF7E1FF039804B010BD042907D8B3
:1010E000DFE801F00308060808000BB90F2A03D94E
:1010F000022070470120704700EB8200009A1268BE
:1011000042601846704700BF10B584B004AC00239D
:1011100044F8042D0A4600941946FFF7DFFF04B097
:1011200010BD00BFF0B5D36B1364151D07460E4606
:101130000FCDADF50F7D17AC0FC40FCD0FC40FCD84
:101140000FC495E80F004FF0FF3584E80F001695A7
:1011500010E016A8FFF7D8FF314616A8B84716AA20
:10116000694678B9049B08209847052804460AD0A8
:10117000092807D026996846FFF714FE6A460C2115
:101180000028E6D0092416A8FFF75EFE20460DF5DC
:101190000F7DF0BD2DE9F04F0D46C96C89B00C1DD7
:1011A000164600F0030B0A6806941F46002B68D011
:1011B000130CD9B212048DF81D30022304EB810404
:1011C00005928DF81C302B6DBBF1020F08BFAC6B84
:1011D00013F0010346D1019300F008030093D4F803
:1011E0000090B9F1000F00F0F380022F45D0B4F861
:1011F0000090B4F802800434AB6C28F0010A0F218F
:1012000030469A44FFF75EFF824534D829F0010347
:101210005344834294BF002001204FEA480808F05D
:10122000020809F0010948EA0908B8F1010F3AD0AB
:1012300031D3B8F1020F1AD1236823F0004ABBF171
:10124000000F66D130B1009A002A6CD0BAF1000FBD
:1012500000F09080002B00DA04340AF1010304EB63
:101260008304BCE7304605A900F046FB78B10920AD
:1012700009B0BDE8F08F0020CFE7D4F8048008342F
:10128000BAE7120203230592ADF81C309BE7082051
:1012900009B0BDE8F08FBBF1000F02D0002840F08C
:1012A000B48004349BE7BBF1000F18D1A8B1D4E996
:1012B0000023991C4FEAD272D9D005F158010133AD
:1012C000049100F0B580201DFFF7EAFD04AB014654
:1012D0002846AFF30080002867D108347FE70D214E
:1012E0003046D5F82080FFF7EDFE8045F5D1AB6A9A
:1012F0009C42F2D12046FFF707FD0F2102463046FF
:10130000FFF702FF30462A460021FFF7FDFE0720C7
:10131000AEE70D213046D5F82080FFF7D3FE80459B
:1013200032D0236896E7BAF1000F23D005F15803B5
:1013300004F10408CDF808B0DDF800900397A34647
:101340001C4602E05745B94640D040460494FFF79A
:10135000A7FD04AB014600222846AFF3008009F147
:10136000010708F104080028ECD0D1455C46DDE90E
:1013700002B7D6D130460D21FFF7A4FE049B2862A8
:10138000C5E90934062073E7AB6A9C42C9D104223F
:101390004FF00008A318C5E90AA8C5E90C23236883
:1013A00043454DDB0123019357E780460D2130462D
:1013B000FFF788FEB8F1020F28623ED12B46049A4F
:1013C00043F82C2F6B62AC62062051E75C46D1E7F4
:1013D00005A9304600F090FA00287FF448AF019B41
:1013E000002B3FF454AF0F213046FFF76BFE0E2168
:1013F00002463046FFF788FE30461A4A0F21FFF7B3
:1014000083FE072009B0BDE8F08F2046FFF77CFC83
:1014100004340746AC632846AFF3008000283FF44D
:1014200026AF30463A460F21FFF76EFE07201FE732
:1014300030460D21FFF746FE2862049B6B62C2E72F
:101440000AF1010004EB8000FFF75EFC0F21024669
:101450003046FFF759FE30462A464146FFF754FE14
:10146000072005E700000000002393E6012391E632
:1014700002238FE62DE9F0410546C4B0042906D8C1
:10148000DFE801F04D2B05030900032B5FD002209C
:1014900044B0BDE8F081002BF9D1102AF7D82B68B1
:1014A000DC0600F1F48022AC2046019200F094F9B1
:1014B000A86B019A0023012606FA03F1114203D01A
:1014C000016844F8231004300133042BF4D1A863DD
:1014D000204600F077F90020DAE7012B4FEA1246A8
:1014E00097B252D0052BD2D106EB0708B8F1200FE6
:1014F000CDD80F2E40F29980B846002F40F0DB8007
:10150000AA6BAA630F2E40F2BE80B8F1000F02D082
:1015100002A800F00BF9002044B0BDE8F081002BD8
:10152000B5D1AC6B97B2281D012606FA03F13942FA
:1015300003F1010302D0216801600434102B00F193
:101540000400F2D112F40050E5D1AC63A0E7160C10
:1015500097B2F319102B9AD82B681A075DD422ACD6
:10156000204600F00DF904EBC601AB6B3FB103EB75
:10157000C702186841F8040B04339342F9D120469E
:10158000AB6300F0DBF8002082E7F219102A3FF687
:101590007EAF0F2E3FF67BAF2A68D10708D52846CD
:1015A00022F0030240F8482B019300F0B3F8019BAE
:1015B000019322AC204600F0ADF8A96B019B002FEF
:1015C00000F095807F0004EBC6044FF00008043C57
:1015D00001EB870251F8040B44F8040F9142F9D152
:1015E000B8F1000F0FD002AC102E314638BF1021D9
:1015F00004EBC101843902EBC80452F8040B41F832
:10160000040F9442F9D1012B7FF47BAF22AC04325A
:10161000AA63204600F07AF87DE723F008032B60E8
:1016200005F5A87000F0ACF899E7B8F1100F2A683A
:1016300043D9D007A8F110080BD5284622F00102A3
:1016400042F0020240F8482B019300F06BF82A6840
:10165000019B510725D40F2E04D822A8019300F036
:1016600061F8019B019302AC204600F063F8C6F1DB
:1016700010010029AA6B019BB6DD22AC4F0004EBE0
:10168000C6041146A3E722A800F048F83DE723F07E
:1016900010032B6005F5E870019200F09DF8019AA7
:1016A00001E7284622F0040240F8D02B019300F015
:1016B00041F8019BCFE72A68CBE7D0070AD5284637
:1016C00022F0010242F0020240F8482B019300F0A0
:1016D00029F8019B019322AC204600F023F8B8467C
:1016E000A96B019B002F7FF46DAF0A4609E70A46FC
:1016F0008DE700BF00F1340191E838009C46A64612
:101700004CF8045D90E8FF0FE54600BD90EC210B1E
:10171000704700BF80EC210B704700BF90EC200B9E
:10172000704700BF80EC200B704700BFD0EC200B4F
:10173000704700BFC0EC200B704700BFF0EC020107
:10174000F0EC0211F0EC0221F0EC0231F0EC02417D
:10175000F0EC0251F0EC0261F0EC0271F0EC02816D
:10176000F0EC0291F0EC02A1F0EC02B1F0EC02C15D
:10177000F0EC02D1F0EC02E1F0EC02F1704700BFB6
:10178000E0EC0201E0EC0211E0EC0221E0EC0231BD
:10179000E0EC0241E0EC0251E0EC0261E0EC0271AD
:1017A000E0EC0281E0EC0291E0EC02A1E0EC02B19D
:1017B000E0EC02C1E0EC02D1E0EC02E1E0EC02F18D
:1017C000704700BFB0FC0181B0FC0191B0FC01A1E9
:1017D000B0FC01B1704700BFA0FC0181A0FC0191E9
:1017E000A0FC01A1A0FC01B1704700BFEC4600B510
:1017F0002DE900502DE9FF1F4FF000032DE90C00EB
:1018000001A9FFF7DDFBDDF840E012B0704700BF33
:10181000EC4600B52DE900502DE9FF1F4FF0000305
:101820002DE90C0001A9FFF705FCDDF840E012B03E
:10183000704700BFEC4600B52DE900502DE9FF1FB1
:101840004FF000032DE90C0001A9FFF715FCDDF8AE
:1018500040E012B0704700BFEC4600B52DE90050E3
:101860002DE9FF1F4FF000032DE90C0001ABFFF73E
:10187000D7FBDDF840E012B0704700BFEC4600B582
:101880002DE900502DE9FF1F4FF000032DE90C005A
:1018900001AAFFF747FCDDF840E012B0704700BF37
:1018A000027A82B9437AABB14268013B10B4437209
:1018B00013680321141D01721A02446002605DF86E
:1018C000044B180E70470368013A02721A02026054
:1018D000180E7047B020704700B585B003AA0023EA
:1018E000009219460C22FFF7D7FB039805B05DF86C
:1018F00004FB00BFF0E700BF2DE9F043054685B0CB
:101900000E464FF000083046FFF7CAFFB0280446E5
:1019100000F0B180070620D500F0F003802B65D0E1
:10192000902B36D0A02B78D0B02B47D0C02B00F016
:101930008A8000F0F803D02B0BD100F007020132AF
:1019400042F40022052301212846FFF793FD0028D9
:10195000D9D0092005B0BDE8F0830DF10C090023B2
:1019600019468700CDF800900D222846FFF794FB1A
:10197000FFB2039BCDF80090043760064CBFDF1B1D
:10198000FF18002319460D2228460397FFF7A6FBF0
:10199000B9E700F00D030D2BDBD003AF002300F0FF
:1019A0000F02194600972846FFF776FB00230097A1
:1019B00019460D222846FFF791FBA4E7B1285FD016
:1019C000B22800F0CC80B3287ED000F0FC03B42B0A
:1019D000BFD000F007020132012342F40022194671
:1019E0002846FFF747FD00288DD0B2E73046FFF7C5
:1019F00057FF24020443B4F5004FAAD0240100236A
:101A0000A2B219462846FFF735FD0028A1D114F4EB
:101A1000004F18BF4FF0010875E7C24302F00703FB
:101A20004FF47F621A41010702F47F624FF0000316
:101A300048BF42F4804219462846FFF71BFD0028A4
:101A40003FF461AF85E7C62851D0C7285AD000F0CF
:101A5000F803C02B69D0C82875D0C9287FF479AFA6
:101A60003046FFF71DFF020300F00F0002F4702262
:101A70000130024366E7B8F1000F14D0002069E797
:101A80003046FFF70DFF00283FF463AF10F0F0037E
:101A90007FF45FAF024619462846FFF7EBFC0028AB
:101AA0003FF431AF55E703AC43460E224146009464
:101AB0002846FFF7F1FA0094284643460F22414694
:101AC000FFF70CFB404645E73046FFF7E9FE010310
:101AD00000F00F0001F47021421C01230A43284644
:101AE0001946FFF7C7FC00283FF40DAF31E7304639
:101AF000FFF7D6FE010300F00F0001F47021421C35
:101B00000323EBE73046FFF7CBFE024600283FF405
:101B100020AF10F0F0037FF41CAF04212846FFF73C
:101B2000A9FC00283FF4EFAE13E700F00F020132EA
:101B3000032342F4202219462846FFF79BFC002885
:101B40003FF4E1AE05E73046FFF7AAFE00F0F002F1
:101B500000F00F031032013343EA0232F2E60023B1
:101B60000DF10C090D221946CDF800902846FFF71B
:101B700093FA3046FFF794FE02064FF002070CD5A9
:101B8000039B00F07F00B840034430460393FFF707
:101B900087FE030607F10707F2D4039BCDF80090F8
:101BA00000F07F0403F50172BC4000231444194681
:101BB0000D2228460394FFF791FAA4E610B5C36CF2
:101BC00084B05A6803208DF80C00DC798DF80D4044
:101BD00012020833084601A901920293FFF78CFE16
:101BE00004B010BD08B5FFF785FE806C08BD00BFCE
:101BF00008B5FFF77FFEC06CC37900EB83000830A7
:101C000008BD00BF08B503F089FB00BF08B5FFF7AA
:101C1000F9FF00BF704700BF844641EA000313F09C
:101C200003036DD1403A41D351F8043B40F8043BE3
:101C300051F8043B40F8043B51F8043B40F8043BA6
:101C400051F8043B40F8043B51F8043B40F8043B96
:101C500051F8043B40F8043B51F8043B40F8043B86
:101C600051F8043B40F8043B51F8043B40F8043B76
:101C700051F8043B40F8043B51F8043B40F8043B66
:101C800051F8043B40F8043B51F8043B40F8043B56
:101C900051F8043B40F8043B51F8043B40F8043B46
:101CA00051F8043B40F8043B403ABDD2303211D3E6
:101CB00051F8043B40F8043B51F8043B40F8043B26
:101CC00051F8043B40F8043B51F8043B40F8043B16
:101CD000103AEDD20C3205D351F8043B40F8043BE6
:101CE000043AF9D2043208D0D2071CBF11F8013BE4
:101CF00000F8013B01D30B8803806046704700BFAA
:101D0000082A13D38B078DD010F003038AD0C3F1B8
:101D10000403D21ADB071CBF11F8013B00F8013B9A
:101D200080D331F8023B20F8023B7BE7043AD9D359
:101D3000013A11F8013B00F8013BF9D20B7803702E
:101D40004B7843708B7883706046704708B50B4BB7
:101D50001A6842F400721A601A6842F480621A60CB
:101D60001A6842F480721A60032000F01BF8002009
:101D700003F00EF802F0EAFF002008BD003C02402C
:101D8000034A1168034B1B780B441360704700BF74
:101D90006004002000000020014B1868704700BF5D
:101DA00060040020074AD36823F4E0631B041B0C83
:101DB000000200F4E060184340F0BF6040F40030DF
:101DC000D060704700ED00E030B4174BDB68C3F320
:101DD0000223C3F10704042C28BF04241D1D062D73
:101DE00018D9033B4FF0FF3505FA04F421EA04014A
:101DF000994005FA03F322EA0303194300280BDB99
:101E00000901C9B200F1604000F5614080F800139B
:101E100030BC70470023E5E700F00F000901C9B2AC
:101E2000024B1954F4E700BF00ED00E014ED00E0B0
:101E3000002807DB00F01F02400901239340024AFB
:101E400042F82030704700BF00E100E030B4056880
:101E50002C6824F480242C60046863608368402B21
:101E600005D0036899600368DA6030BC7047036886
:101E70009A600368D960F8E70268D3B2103B0B4957
:101E8000A1FB03131B090A49C95CC165032B06D8D2
:101E900022F47F7222F003028265806D704722F483
:101EA0007F7222F0030204328265F6E7ABAAAAAA87
:101EB00018560008836A826992B9012B0AD01BB1B7
:101EC000022B01D000207047C36A13F0807F2CD111
:101ED00000207047C36AB3F1C07F28D0002070474C
:101EE000B2F5005F05D0022B29D9032B15D00020B5
:101EF0007047032B03D8DFE803F01C041C0A002002
:101F00007047C36A13F0807F15D100207047C36A01
:101F1000B3F1C07F11D000207047C36A13F0807FF7
:101F200001D0012070470020704701207047012038
:101F30007047012070470120704701207047012041
:101F40007047000070B50446FFF726FF002C5BD0F9
:101F50000546022384F83530002384F834302268A3
:101F6000136823F00103136023681A6812F0010F4D
:101F70000AD0FFF711FF401B0528F5D92023636520
:101F8000032084F8350070BD1A682048104061684D
:101F9000A2680A43E1680A4321690A4361690A4366
:101FA000A1690A43E1690A43216A0A430243616A5B
:101FB00004291ED01A602668756925F00705636A32
:101FC0001D43042B07D1A36A1D43E36A1BB12046BE
:101FD000FFF770FF90B975612046FFF74DFFE26D86
:101FE0003F239340836000206065012384F83530EF
:101FF000C9E7E16A206B01430A43DBE740236365DD
:10200000012084F83500BEE70120BCE73F8010F0D6
:1020100038B5856D90F83440012C2CD0012480F81F
:10202000344090F83540E4B2012C04D0002380F80D
:102030003430022038BD0446022084F835000020E8
:1020400060652046FFF702FFE26D3F239340AB60DF
:102050002268136843F016031360236C23B12268CF
:10206000136843F0080313602268136843F0010308
:1020700013600020DEE70220DCE770B50446866DC1
:10208000FFF78AFE94F83530DBB2022B06D08023AE
:102090006365002384F83430012070BD0546226852
:1020A000136823F0160313602268536923F080033A
:1020B0005361236CE3B12268136823F008031360B3
:1020C0002268136823F00103136023681B6813F070
:1020D000010F11D0FFF760FE401B0528F5D9202322
:1020E0006365032084F83500002384F83430D4E796
:1020F000A36C002BDFD1E3E7E26D3F239340B36095
:10210000012384F83530002084F83400C5E790F8C6
:102110003530DBB2022B03D08023436501207047AA
:10212000052380F835300268136823F0010313603B
:1021300000207047F0B583B0044600230193724B32
:102140001D68724BA3FB0535AD0A876D3E68C26DF5
:1021500008239340334210D003681A6812F0040F2A
:102160000BD01A6822F004021A60C26D0823934053
:10217000BB60436D43F001034365E26D012393406F
:10218000334209D02268526912F0800F04D0BB603C
:10219000636D43F002036365E26D042393403342B1
:1021A00009D02268126812F0020F04D0BB60636D80
:1021B00043F004036365E26D10239340334224D05F
:1021C0002268126812F0080F1FD0BB6023681A68DB
:1021D00012F4802F0DD01B6813F4002F04D1236C50
:1021E0009BB12046984710E0A36C73B120469847F6
:1021F0000BE01A6812F4807F03D11A6822F00802FB
:102200001A60236C0BB120469847E26D202393405F
:10221000334255D02268126812F0100F50D0BB60C4
:1022200094F83530DBB2052B0ED023681A6812F40F
:10223000802F33D01B6813F4002F2AD1636C002B3E
:102240003ED0204698473BE02268136823F01603EF
:1022500013602268536923F080035361236CA3B198
:102260002268136823F008031360E26D3F23934054
:10227000BB60012384F83530002384F83430236DAB
:10228000002B3FD0204698473CE0A36C002BE7D1C1
:10229000EBE7E36BA3B12046984711E01A6812F40C
:1022A000807F09D11A6822F010021A60012384F895
:1022B0003530002384F83430E36B0BB12046984767
:1022C000636DFBB1636D13F0010F17D0052384F824
:1022D00035302268136823F001031360019B01333A
:1022E0000193AB4204D823681B6813F0010FF5D1AA
:1022F000012384F83530002384F83430E36C0BB1CB
:102300002046984703B0F0BD0C000020B5814E1B5D
:1023100000230F2B00F2DC80F0B482B05DE0866811
:102320005F000324BC4026EA0406CC68BC4034436A
:102330008460466826EA02064C68C4F300129A409C
:102340003243426056E0DC08083450F8247003F051
:10235000070296000F22B24027EA02070A69B2403C
:102360003A4340F8242059E0072200E00022B2401E
:102370003A430234574E46F82420574A1468EA4339
:1023800002EA04064F6817F4803F01D045EA0406CC
:10239000514C2660646802EA04064F6817F4003F57
:1023A00001D045EA04064C4C6660A46802EA0406C3
:1023B0004F6817F4801F01D045EA0406464CA6601A
:1023C000E46822404E6816F4001F01D045EA04027A
:1023D000414CE26001330F2B77D801229A400C6800
:1023E00004EA0205AA42F5D14C6804F00304013C5A
:1023F000012C94D94A6802F00302032A09D0C46868
:102400005E000322B24024EA02048A68B2402243FA
:10241000C2604A6802F00302022A94D004685E0097
:102420000322B24024EA02044A6802F00302B240E6
:10243000224302604A6812F4403FCBD0002201924E
:10244000264A546C44F480445464526C02F4804232
:102450000192019A9C08A61C1E4A52F8267003F0AD
:10246000030296000F22B24027EA02071C4A90425C
:102470003FF47CAF02F5806290421AD002F5806290
:10248000904218D002F58062904216D002F5806228
:10249000904214D002F58062904212D002F5806220
:1024A000904210D002F5806290423FF45DAF082266
:1024B0005DE701225BE7022259E7032257E7042286
:1024C00055E7052253E7062251E702B0F0BC7047FA
:1024D000704700BF00380140003C01400038024016
:1024E0000000024012B909048161704781617047A0
:1024F000436901EA030221EA030141EA02418161E1
:1025000070470000002800F0E98170B582B00446F1
:10251000036813F0010F3BD0A74B9B6803F00C033B
:10252000042B2CD0A44B9B6803F00C03082B21D068
:102530006368B3F5803F4FD0B3F5A02F52D09E4BC8
:102540001A6822F480321A601A6822F480221A6013
:102550006368002B50D0FFF71FFC0546964B1B68A5
:1025600013F4003F14D1FFF717FC401B6428F5D982
:102570000320B8E1904B5B6813F4800FD8D08E4BEA
:102580001B6813F4003F03D06368002B00F0A881A0
:10259000236813F0020F55D0874B9B6813F00C0F84
:1025A0003ED0854B9B6803F00C03082B33D0E368C7
:1025B000002B68D0814B01221A60FFF7EDFB054626
:1025C0007D4B1B6813F0020F54D1FFF7E5FB401B56
:1025D0000228F5D9032086E1774A136843F4803353
:1025E0001360B5E7744B1A6842F480221A601A68C7
:1025F00042F480321A60ABE7FFF7CEFB05466E4B24
:102600001B6813F4003FC3D0FFF7C6FB401B6428D0
:10261000F5D9032067E1684B5B6813F4800FC6D1DE
:10262000654B1B6813F0020F04D0E368012B01D047
:10263000012058E1604A136823F0F803216943EA56
:10264000C1031360236813F0080F40D0636963B3BC
:102650005B4B01221A60FFF79FFB0546564B5B6FF1
:1026600013F0020F33D1FFF797FB401B0228F5D977
:10267000032038E1504A136823F0F803216943EA44
:10268000C1031360DEE74D4B00221A60FFF784FBA5
:102690000546494B1B6813F0020FD3D0FFF77CFBB4
:1026A000401B0228F5D903201DE1454B00221A608A
:1026B000FFF772FB0546404B5B6F13F0020F06D02D
:1026C000FFF76AFB401B0228F5D903200BE12368C2
:1026D00013F0040F79D0384B1B6C13F0805F33D1AB
:1026E00000230193344B1A6C42F080521A641B6C25
:1026F00003F080530193019B0125324B1B6813F4B7
:10270000807F23D0A368012B34D0052B38D02A4BEF
:102710001A6F22F001021A671A6F22F004021A6778
:10272000A368002B36D0FFF737FB0646224B1B6F02
:1027300013F0020F48D1FFF72FFB801B41F28833C3
:102740009842F3D90320CEE00025D6E71D4A13684E
:1027500043F480731360FFF71FFB0646194B1B6899
:1027600013F4807FCED1FFF717FB801B0228F5D929
:102770000320B8E0104A136F43F001031367CFE75B
:102780000D4B1A6F42F004021A671A6F42F00102F1
:102790001A67C5E7FFF700FB0646074B1B6F13F0F0
:1027A000020F11D0FFF7F8FA801B41F288339842EC
:1027B000F3D9032097E000BF0038024000004742F1
:1027C000800E474200700040EDB9A369002B00F075
:1027D0008980484A926802F00C02082A51D0022BE4
:1027E00017D0454B00221A60FFF7D6FA0446414B3A
:1027F0001B6813F0007F42D0FFF7CEFA001B0228BF
:10280000F5D903206FE03B4A136C23F08053136427
:10281000DBE7394B00221A60FFF7BEFA0546354B5D
:102820001B6813F0007F06D0FFF7B6FA401B0228A2
:10283000F5D9032057E0E369226A1343626A43EA49
:102840008213A26A5208013A43EA0243E26A43EA67
:102850000263284A5360284B01221A60FFF79CFA52
:102860000446244B1B6813F0007F06D1FFF794FA4F
:10287000001B0228F5D9032035E0002033E00020BA
:1028800031E0012B31D01B4B5B6803F48001E2691E
:10289000914201D0012026E003F03F02216A8A42E2
:1028A00001D001201FE0616A47F6C0721A40B2EB06
:1028B000811F01D0012016E003F44031A26A5208C2
:1028C000013AB1EB024F01D001200CE003F070633C
:1028D000E26AB3EB026F0AD0012004E001207047E6
:1028E000012000E0002002B070BD0120FBE70020C5
:1028F000F9E700BF0038024060004742264B9B6862
:1029000003F00C03042B44D0082B01D0234870475C
:102910002DE9F04B204B5A6802F03F025B6813F43C
:10292000800F13D01C4B5968C1F3881100231C4839
:10293000A1FB0001FEF76AF8174B5B68C3F3014384
:1029400001335B00B0FBF3F0BDE8F08B124B5B682A
:10295000C3F388131E4600275C010025E41A65EBCB
:102960000705A90141EA9461A001001B61EB050183
:10297000CB0043EA5073C400A01943EB07018B025C
:1029800043EA90538402204619460023FEF73EF89E
:10299000D2E70348704700BF003802400024F4002B
:1029A000001BB700002800F09E8070B50446504B15
:1029B0001B6803F007038B4209D2CBB24C4A137059
:1029C000136803F007038B4201D0012070BD236818
:1029D00013F0020F17D013F0040F04D0454A936888
:1029E00043F4E0539360236813F0080F04D0414A86
:1029F000936843F4604393603E4A936823F0F00386
:102A0000A068034393600D46236813F0010F32D092
:102A10006368012B21D09A1E012A25D9354A1268F4
:102A200012F0020F61D033498A6822F00302134387
:102A30008B60FFF7B1F906462E4B9B6803F00C0341
:102A40006268B3EB820F16D0FFF7A6F9801B41F244
:102A500088339842F0D90320B8E7264A126812F466
:102A6000003FE0D10120B1E7224A126812F0007F56
:102A7000D9D10120AAE71E4B1B6803F00703AB4224
:102A800009D9EAB21A4B1A701B6803F00703AB426C
:102A900001D001209AE7236813F0040F06D0154AED
:102AA000936823F4E053E1680B439360236813F0C9
:102AB000080F07D00F4A936823F46043216943EA63
:102AC000C1039360FFF71AFF0A4B9B68C3F303131C
:102AD000094AD35CD840094B1860094B186802F0CA
:102AE00057F9002072E70120704701206EE700BF10
:102AF000003C024000380240405600080C00002014
:102B000004000020014B1868704700BF0C00002033
:102B100008B5FFF7F7FF044B9B68C3F38223034A12
:102B2000D35CD84008BD00BF0038024050560008B2
:102B300008B5FFF7E7FF044B9B68C3F34233034A32
:102B4000D35CD84008BD00BF003802405056000892
:102B50000F2303600B4B9A6802F0030242609A68ED
:102B600002F0F00282609A6802F4E052C2609B6850
:102B7000DB0803F4E0530361034B1B6803F0070316
:102B80000B60704700380240003C024010B4036AFA
:102B9000046A24F001040462846924F0F00444EA25
:102BA000021223F00A030B43826103625DF8044BB7
:102BB000704730B4046A24F0100404628469056A22
:102BC00024F4407444EA022222F470421B039BB2B4
:102BD0001A4325F0A005090101F0A00129438261F3
:102BE000016230BC704710B4036A23F01003036223
:102BF0008469036A24F4704444EA023223F0A00397
:102C000043EA0113826103625DF8044B704730B4FC
:102C1000046A24F480740462C469056A24F003041D
:102C2000224322F0F0021B01DBB21A4325F4206597
:102C3000090201F420612943C261016230BC70477E
:102C400030B4046A24F480540462C469056A24F42C
:102C5000407444EA022222F470421B039BB21A43DE
:102C600025F42045090301F420412943C261016292
:102C700030BC7047836823F07003194341F00701AB
:102C80008160704790F83D30DBB2012B01D001200C
:102C90007047022380F83D300268D36843F0010397
:102CA000D3600368184A934220D0B3F1804F1DD0FF
:102CB000A2F57C42934219D002F58062934215D06E
:102CC00002F58062934211D002F5784293420DD012
:102CD00002F57052934209D0A2F59432934205D086
:102CE0001A6842F001021A60002070479A6802F0E8
:102CF0000702062A05D01A6842F001021A60002075
:102D000070470020704700BF0000014070470C2949
:102D100014D8DFE801F0071313130A1313130D136C
:102D2000131310000368586B70470368986B704763
:102D30000368D86B70470368186C704700207047B1
:102D400070477047704710B5044603681A6912F05F
:102D5000020F11D0DA6812F0020F0DD06FF00202EC
:102D60001A610123037703689B6913F0030F70D086
:102D700002F076FA0023237723681A6912F0040F11
:102D800012D0DA6812F0040F0ED06FF004021A614C
:102D90000223237723689B6913F4407F5FD020468A
:102DA00002F05EFA0023237723681A6912F0080FF5
:102DB00012D0DA6812F0080F0ED06FF008021A6114
:102DC000042323772368DB6913F0030F4ED02046DA
:102DD00002F046FA0023237723681A6912F0100FD5
:102DE00012D0DA6812F0100F0ED06FF010021A61D4
:102DF000082323772368DB6913F4407F3DD0204606
:102E000002F02EFA0023237723681A6912F0010FCB
:102E100003D0DA6812F0010F36D123681A6912F074
:102E2000800F03D0DA6812F0800F34D123681A695A
:102E300012F0400F03D0DA6812F0400F32D123684D
:102E40001A6912F0200F03D0DA6812F0200F30D187
:102E500010BDFFF775FF2046FFF773FF8AE7204696
:102E6000FFF76EFF2046FFF76CFF9BE72046FFF75A
:102E700067FF2046FFF765FFACE72046FFF760FFDE
:102E80002046FFF75EFFBDE76FF001021A612046A2
:102E900001F0E8FEC1E76FF080021A61204600F001
:102EA00076FBC3E76FF040021A612046FFF74AFF46
:102EB000C5E76FF020021A61204600F067FBC7E704
:102EC0000368304A904212D0B0F1804F0FD0A2F583
:102ED0007C4290420BD002F58062904207D002F50E
:102EE0008062904203D002F57842904203D123F0F1
:102EF00070034A681343234A90422AD0B0F1804FAE
:102F000027D0A2F57C42904223D002F58062904205
:102F10001FD002F5806290421BD002F578429042A9
:102F200017D002F57052904213D002F580629042A1
:102F30000FD002F5806290420BD0A2F598329042F9
:102F400007D002F58062904203D002F58062904281
:102F500003D123F44073CA68134323F080034A6902
:102F6000134303608B68C3620B688362054B98420E
:102F700003D003F58063984201D10B6903630123F9
:102F8000436170470000014038B310B5044690F823
:102F90003D30EBB1022384F83D30211D2068FFF75E
:102FA0008FFF012384F8463084F83E3084F83F30A8
:102FB00084F8403084F8413084F8423084F843305B
:102FC00084F8443084F8453084F83D30002010BD4A
:102FD00080F83C3001F0EAFFDCE70120704738B3AD
:102FE00010B5044690F83D30EBB1022384F83D3033
:102FF000211D2068FFF764FF012384F8463084F820
:103000003E3084F83F3084F8403084F8413084F812
:10301000423084F8433084F8443084F8453084F8F2
:103020003D30002010BD80F83C30FFF76FFEDCE73C
:103030000120704770B4046A24F0010404628469BA
:10304000056A194EB0421DD0B0F1804F1AD0A6F5D6
:103050007C46B04216D006F58066B04212D006F526
:103060008066B0420ED006F57846B0420AD006F52A
:103070007056B04206D0A6F59436B04202D044F065
:10308000010202E024F00304224322F0F0021B01BB
:10309000DBB2134325F00A0201F00A0111438361F8
:1030A000016270BC704700BF0000014038B590F865
:1030B0003C30012B5AD00D460446012380F83C30A9
:1030C00052B1042A1AD0082A2BD00C2A3BD0012056
:1030D000002384F83C3038BDCB684A680968006832
:1030E000FFF7A8FF2268936923F00C03936122681D
:1030F0009369A9680B4393610020E9E7CB684A68AC
:1031000009680068FFF755FD2268936923F440635E
:10311000936122689369A96843EA012393610020BF
:10312000D6E7CB684A6809680068FFF770FD226837
:10313000D36923F00C03D3612268D369A9680B43D8
:10314000D3610020C4E7CB684A6809680068FFF7CC
:1031500077FD2268D36923F44063D3612268D36981
:10316000A96843EA0123D3610020B1E70220B2E756
:1031700010B4846824F47F4442EA03230B432343BE
:1031800083605DF8044B704790F83C30012B73D09E
:1031900010B50446012380F83C30022380F83D300E
:1031A0000268936823F47F4323F0770393600B68EE
:1031B000402B56D011D9702B3BD01FD8502B45D067
:1031C000602B19D1CA6849680068FFF70CFD6021BF
:1031D0002068FFF74FFD002024E0102B04D009D910
:1031E000202B01D0302B07D119462068FFF742FD74
:1031F000002017E0002BF7D0012013E0B3F5805F2B
:103200000FD0B3F5005FF7D1CB684A6889680068D2
:10321000FFF7AEFF2268936843F480439360002079
:1032200000E00020012384F83D30002384F83C3086
:1032300010BDCB684A6889680068FFF799FF22686B
:10324000936843F0770393600020EBE7CA6849680E
:103250000068FFF79BFC50212068FFF70BFD002062
:10326000E0E7CA6849680068FFF790FC40212068E1
:10327000FFF700FD0020D5E70220704710B5046875
:10328000A26822F070024B68134323F007030A6818
:103290001343A3604B68302B2DD00ED9502B2CD06C
:1032A00012D9602B30D0702B0CD10B698A68C96899
:1032B0000068FFF75DFF00201EE0102B1BD0202BC5
:1032C00019D0C3B1012017E0402BFBD10B68052BAF
:1032D00021D003681C6A1A6A22F001021A6202688D
:1032E000936923F0F003096943EA011393610368CA
:1032F0001C62002000E0002010BD0A698968006897
:10330000FFF744FC0020F7E70A6989680068FFF7C7
:103310006AFC0020F0E70120EEE790F83C30012B3A
:1033200024D010B50446012380F83C30022380F8F5
:103330003D30FFF7A3FF034688B92168CA6822F031
:103340004002CA602168CA6822F48042CA60012231
:1033500084F83D20002284F83C20184610BD01234B
:1033600084F83D30002284F83C20F6E7022318461A
:10337000704710B401F01F01012303FA01F4036A3E
:1033800023EA04030362036A8A40134303625DF87D
:10339000044B70470B4651B990F83E20D2B2B3B9F6
:1033A00090F84210C9B2012A21D0012070470429A7
:1033B00005D0082907D090F84120D2B2EFE790F865
:1033C0003F20D2B2EBE790F84020D2B2E7E7042BDF
:1033D00005D0082B07D090F84510C9B2E3E790F864
:1033E0004310C9B2DFE790F84410C9B2DBE7012906
:1033F00001D0012070478BB9022280F83E20EBB942
:10340000022280F842200C2B76D8DFE803F02775E3
:103410007575587575755E7575756400042B05D0E6
:10342000082B07D0022280F84120E8E7022280F82A
:103430003F20E4E7022280F84020E0E7042B05D09B
:10344000082B07D0022280F84520DCE7022280F812
:103450004320D8E7022280F84420D4E70168CA68F4
:1034600042F00202CA6010B5194604460122006803
:10347000FFF77FFF2368224A934232D0B3F1804F97
:103480002FD0A2F57C4293422BD002F5806293426A
:1034900027D002F58062934223D002F5784293420E
:1034A0001FD002F5705293421BD0A2F59432934282
:1034B00017D01A6842F001021A6000201BE0016870
:1034C000CA6842F00402CA60CDE70168CA6842F0E7
:1034D0000802CA60C7E70168CA6842F01002CA6001
:1034E000C1E79A6802F00702062A07D01A6842F07C
:1034F00001021A60002010BD012070470020FAE789
:103500000000014090F83C30012B3BD030B4012347
:1035100080F83C30022380F83D3003685C689D6889
:1035200024F070040A6822435A600368164A9342E2
:103530001AD0B3F1804F17D0A2F57C42934213D03A
:1035400002F5806293420FD002F5806293420BD065
:1035500002F57842934207D002F57052934203D0AD
:10356000A2F59432934204D125F080054A681543B0
:103570009D60012380F83D30002380F83C301846E0
:1035800030BC704702207047000001407047704710
:10359000026802F10C0353E8003F23F0C0030C3231
:1035A00042E800310029F3D1202380F83D307047F4
:1035B000026802F10C0353E8003F23F490730C32CD
:1035C00042E800310029F3D1026802F1140353E804
:1035D000003F23F00103143242E800310029F3D107
:1035E000036B012B05D0202380F83E3000230363BA
:1035F0007047026802F10C0353E8003F23F0100308
:103600000C3242E800310029F3D1ECE790F83D306C
:10361000DBB2212B27D18368B3F5805F16D0036A14
:103620005A1C02621A7803685A60C38C013B9BB231
:10363000C384D3B90268D36823F08003D3600268DF
:10364000D36843F04003D360002070470369002B28
:10365000E5D1036A1B880268C3F308035360036A59
:1036600002330362E1E70220704700207047000048
:103670002DE9F04B04460268136923F44053C168F6
:103680000B43136183680269134342691343C269A0
:103690001A430168CB6823F4164323F00C03134349
:1036A000CB600268536923F4407381690B43536113
:1036B00003683A4A934206D002F58062934202D0F0
:1036C000FFF726FA01E0FFF733FAE369B3F5004F9D
:1036D00030D04FF00009061849EB090716EB000B34
:1036E00047EB090C4FEACC0343EA5B734FEACB028A
:1036F00093469C4663689A009B0F10EB0B0049EBC6
:103700000C01FDF783F9264DA5FB00325109642217
:1037100002FB110213013233A5FB03235B0903F003
:10372000F00202EB011203F00F03216813448B60D7
:10373000BDE8F08B83464FF0000C06184CEB0C07ED
:1037400016EB000847EB0C094FEAC90343EA58732C
:103750004FEAC8029046994662680021921841EBF0
:1037600001031BEB08004CEB0901FDF74FF90C4D71
:10377000A5FB00325109642202FB1102D30032334F
:10378000A5FB03235B095A0002F4F87202EB011255
:1037900003F00703216813448B60C9E70010014060
:1037A0001F85EB5158B310B5044690F83D300BB36C
:1037B000242384F83D302268D36823F40053D36077
:1037C0002046FFF755FF2268136923F490431361E5
:1037D0002268536923F02A0353612268D36843F4B3
:1037E0000053D36000202064202384F83D3084F807
:1037F0003E3010BD80F83C3001F048FCD8E7012095
:103800007047000038B590F83D50EDB2202D38D10A
:10381000002938D0002A38D090F83C30012B36D01F
:1038200013460446012280F83C2001628384C3844D
:1038300000250564212280F83D20426B1548D063A5
:10384000626B15481064626B1448D064626B156536
:1038500022680432606BFEF7DBFB23686FF04002E6
:103860001A6084F83C50226802F1140353E8003FC8
:1038700043F08003143242E800310029F3D10020E4
:1038800000E0022038BD0120FCE70120FAE7022019
:10389000F8E700BFA33800080B3900081739000803
:1038A000704708B5816B03681B6813F4807F1AD1D9
:1038B0000023CB840A6802F1140353E8003F23F08D
:1038C0008003143242E800300028F3D10A6802F184
:1038D0000C0353E8003F43F040030C3242E8003051
:1038E0000028F3D108BD0846FFF7DAFFFAE708B56C
:1038F0000168CB6823F04003CB60202380F83D3083
:10390000FFF7CEFF002008BD704708B5806BFFF7BA
:10391000FBFF08BD704710B5846B23685A6994F8A3
:103920003D30DBB2212B10D023685A6902F04002EF
:1039300094F83E30DBB2222B11D0236C43F01003FD
:1039400023642046FFF7E6FF10BD02F08002002A44
:10395000EAD00023E3842046FFF71AFEE4E7002ABA
:10396000EBD00023E3852046FFF722FEE5E708B50C
:10397000806B0023C385C384FFF7CCFF08BD70476D
:1039800090F83E30DBB2222B67D18368B3F5805FBD
:103990004CD0826AB3F5805F04D0002B53D1036909
:1039A000002B50D103685B681370836A0133836214
:1039B000C38D013B9BB2C385002B50D100B583B0B2
:1039C0000268D36823F02003D3600268D36823F42D
:1039D0008073D3600268536923F00103536120238D
:1039E00080F83E30036B012B33D100230363026860
:1039F00002F10C0353E8003F23F010030C3242E8BD
:103A000000310029F3D103681A6812F0100F06D0B4
:103A1000002201921A6801925B680193019B818DDB
:103A2000FFF7ADFF002003B05DF804FB0269002A38
:103A3000AFD1826A03685B68C3F308031380836AAB
:103A400002338362B4E703685B6803F07F0313709B
:103A5000ABE701F04DFC0020E5E7022070470020B5
:103A60007047000030B583B0044602681368D06820
:103A7000516913F00F0505D113F0200F02D010F09B
:103A8000200F5ED1002D72D011F0010102D110F48F
:103A9000907F6CD013F0010F06D010F4807F03D01C
:103AA000226C42F00102226413F0040F04D019B119
:103AB000226C42F00202226413F0020F04D019B10A
:103AC000226C42F00402226413F0080F07D010F0B9
:103AD000200F00D119B1226C42F008022264226C3E
:103AE000002A55D013F0200F02D010F0200F2CD157
:103AF00023685B6903F04003226C12F0080F00D1C9
:103B00007BB32046FFF754FD23685B6913F0400F39
:103B100023D0226802F1140353E8003F23F040034E
:103B2000143242E800310029F3D1A36B8BB1684A0B
:103B30001A65A06BFEF7EBFA50B3A06B036D9847C4
:103B400026E02046FFF71CFF22E02046FFF718FF83
:103B5000CEE72046FFF7DEFE1AE02046FFF7DAFE4A
:103B600016E02046FFF7D6FE0023236410E0216B09
:103B700001290FD013F0800F03D010F0800F40F018
:103B80009F8013F0400F03D010F0400F40F09C8056
:103B900003B030BD13F0100FECD010F0100FE9D0CF
:103BA000002301931368019353680193019B5369A8
:103BB00013F0400F4DD0A26B13685B689BB2002BD3
:103BC000E6D0A18D9942E3D9E385D369B3F5807F2F
:103BD00037D0226802F10C0353E8003F23F48073CE
:103BE0000C3242E800310029F3D1226802F11403BB
:103BF00053E8003F23F00103143242E8003100296A
:103C0000F3D1226802F1140353E8003F23F040038C
:103C1000143242E800310029F3D1202384F83E30E9
:103C200000232363226802F10C0353E8003F23F0D2
:103C300010030C3242E800310029F3D1A06BFEF7EB
:103C40001CFAA18DE38DC91A89B22046FFF797FEB1
:103C50009EE7A18DE38DC91A89B2E38D9BB2002B3B
:103C600096D0002994D0226802F10C0353E8003F5B
:103C700023F490730C3242E800300028F3D122681C
:103C800002F1140353E8003F23F00103143242E829
:103C900000300028F3D1202384F83E300023236332
:103CA000226802F10C0353E8003F23F010030C32AA
:103CB00042E800300028F3D12046FFF760FE67E7B6
:103CC0002046FFF7A3FC63E72046FFF710FE5FE7FF
:103CD0006F390008034681628285C285002018641E
:103CE000222283F83E2083F83C001968CA6842F417
:103CF0008072CA6019684A6942F001024A611A6812
:103D0000D36843F02003D360704708B590F83E3085
:103D1000DBB2202B0DD171B17AB190F83C30012B80
:103D20000DD0012380F83C3000230363FFF7D2FF5E
:103D300000E0022008BD0120FCE70120FAE7022094
:103D4000F8E7842801D0033070470020704708B599
:103D500000F034FD002008BD2DE9F04387B0044693
:103D60000F464569A5B1866996B1D0F80480D0F8B0
:103D70000090B0F90800FFF7E4FF22690296019570
:103D800000903B464946404600F0AAFC059013E0EF
:103D900065682668D4F81080B4F90800FFF7D1FFF1
:103DA00005AB019300903B461FFA88F23146284646
:103DB00000F0D0FC012803D1059807B0BDE8F083DE
:103DC0000020FAE708B5034600B90123184600F0C1
:103DD00039FE002008BD00F1080343604FF0FF32B8
:103DE0008260C360036100230360704700230361A6
:103DF000704743684B609A688A609A68516099601E
:103E00000861036801330360704730B40D68B5F191
:103E1000FF3F02D000F1080202E0026904E01A4606
:103E200053681C68AC42FAD953684B6099608A6049
:103E30005160086103680133036030BC7047036957
:103E40004268816891608268416851605A68824224
:103E500006D0002202611A68013A1A601868704799
:103E600082685A60F5E7000082B0002301930D4B91
:103E70001B68B3F1FF3F08D04FF0500383F3118864
:103E8000BFF36F8FBFF34F8FFEE74FF0500383F305
:103E90001188BFF36F8FBFF34F8F019B002BFCD0B6
:103EA00002B070470800002008480068006880F3EE
:103EB00008884FF0000080F3148862B661B6BFF343
:103EC0004F8FBFF36F8F00DF00BF000008ED00E0F1
:103ED000DFF80C00016841F47001016070470000D8
:103EE00088ED00E04FF0807340F8043C21F00101C0
:103EF00040F8081C054B40F80C3C40F8202C6FF0B3
:103F0000020340F8243C4438704700BF693E000873
:103F1000074B19680868B0E8F04F80F30988BFF3D1
:103F20006F8F4FF0000080F311887047AFF300806F
:103F30008C4000204FF0500383F31188BFF36F8F44
:103F4000BFF34F8F0A4A136801331360012B00D06F
:103F50007047084B1B6813F0FF0FF9D04FF0500368
:103F600083F31188BFF36F8FBFF34F8FFEE700BF5E
:103F70000800002004ED00E0094B1B6843B94FF036
:103F8000500383F31188BFF36F8FBFF34F8FFEE7AA
:103F9000013B034A13600BB983F31188704700BFDC
:103FA00008000020000000000000000000000000E9
:103FB000EFF30980BFF36F8F154B1A681EF0100FD7
:103FC00008BF20ED108A20E9F04F10602DE90900AC
:103FD0004FF0500080F31188BFF34F8FBFF36F8F06
:103FE00000F056FD4FF0000080F3118809BC1968FD
:103FF0000868B0E8F04F1EF0100F08BFB0EC108A50
:1040000080F30988BFF36F8F704700BFAFF3008064
:104010008C40002008B54FF0500383F31188BFF3A4
:104020006F8FBFF34F8F00F007FC18B1034B4FF0B9
:1040300080521A60002383F3118808BD04ED00E06C
:10404000084A0023136008490B60084B1B680849A5
:10405000A1FB03139B09013B06490B600723136077
:10406000704700BF10E000E018E000E00C00002006
:10407000D34D621014E000E03A4B1A683A4B9A4272
:104080000DD0384B1A68394B9A4211D14FF050037A
:1040900083F31188BFF36F8FBFF34F8FFEE74FF0AD
:1040A000500383F31188BFF36F8FBFF34F8FFEE789
:1040B00010B582B02E4B1A78D2B20192FF221A703C
:1040C0001B78DBB28DF803309DF8033003F050030A
:1040D000284A1370284B07221A6009E0264A136801
:1040E000013B13609DF803305B00DBB28DF80330B9
:1040F0009DF8033013F0800FF0D11F4B1B68032B8A
:1041000008D04FF0500383F31188BFF36F8FBFF3D4
:104110004F8FFEE71B0203F4E063174A1360019B15
:10412000DBB2134A1370154B1A6842F470021A601E
:104130001A6842F070421A60FFF782FF0024104BA9
:104140001C60FFF7C5FE0F4A136843F0404313603D
:10415000FFF7AAFE00F09CFCFFF786FE204602B0A7
:1041600010BD00BF00ED00E071C20F4170C20F41F1
:1041700000E400E0640400206804002020ED00E07A
:104180000800002034EF00E0124A12F0070F1ED0A2
:10419000D11D21F00701C1F5705313440A460E48A2
:1041A0000260002141601344083B23F007030B48E1
:1041B000036059601960991A51601360084B1960C7
:1041C000084B1960084B4FF000421A6070474FF4DB
:1041D0007053E4E770040020844000206C04002049
:1041E00078400020744000207040002010B4134B31
:1041F0001A6882421BD359685C18844203D1406814
:1042000001445960184641684418A24213D10C4C2D
:104210002468A2420DD05268114441601A681268A5
:104220000260984200D018605DF8044B7047134656
:10423000DEE70460F5E70260F3E700BF844000209A
:104240006C04002070B5044600F0EEFA3C4B1B688D
:10425000BBB13C4B1B681C4267D1ACB1083414F0B5
:10426000070F11D024F00704083404F007035BB1F2
:104270004FF0500383F31188BFF36F8FBFF34F8F5D
:10428000FEE7FFF781FFE4E7002C50D02E4B1B68C0
:10429000A3424ED32D4B1D6801E02B4615466A689C
:1042A000A24202D22A68002AF7D1254A1268AA42FD
:1042B00041D01E6808362A681A606B681B1B102BD9
:1042C00010D9281910F0070F08D04FF0500383F3CE
:1042D0001188BFF36F8FBFF34F8FFEE743606C60B1
:1042E000FFF784FF6A6818490B689B1A0B6018492E
:1042F00009688B4201D216490B60124B1B681343AD
:104300006B6000232B60134A13680133136000F0C5
:104310001FFB16F0070F10D04FF0500383F31188E6
:10432000BFF36F8FBFF34F8FFEE70026EFE7002646
:10433000EDE70026EBE70026E9E7304670BD00BF59
:104340006C04002070400020744000208440002055
:10435000784000207C400020002834D038B5044646
:10436000A0F1080550F8042C174909680A4208D141
:104370004FF0500383F31188BFF36F8FBFF34F8F5C
:10438000FEE750F8080C40B14FF0500383F311885A
:10439000BFF36F8FBFF34F8FFEE722EA010244F8AD
:1043A000042C00F041FA54F8041C084A13680B442A
:1043B00013602846FFF71AFF054A1368013313609C
:1043C00000F0C6FA38BD70477040002074400020ED
:1043D00080400020084B1B681B683BB1064B1B68E4
:1043E000DB68DB685A68054B1A607047034B4FF077
:1043F000FF321A60704700BF9040002060410020EB
:104400002DE9F04780469946089D099F0A9C266B36
:1044100002F18042013A06EB820626F0070689B3D4
:104420000A4600230F2B07D8D05CE11881F834002E
:10443000D15C09B10133F5E7002384F84330062D40
:1044400000D90625E56265644FF0000AC4F848A06B
:10445000201DFFF7CBFC04F11800FFF7C7FC246117
:10446000C5F10705A5616462C4F84CA084F850A0AA
:104470004A4641463046FFF735FD206007B13C60B3
:10448000BDE8F087002384F83430D8E738B500243D
:1044900007E004EB840293000E481844FFF79BFCEE
:1044A0000134062CF5D90C4D2846FFF794FC0B4C33
:1044B0002046FFF790FC0A48FFF78DFC0948FFF7FC
:1044C0008AFC0948FFF787FC084B1D60084B1C60FD
:1044D00038BD00BF98400020384100204C410020EA
:1044E0006C41002098410020844100209040002031
:1044F0009440002010B50446FFF71CFD204A1368C5
:10450000013313601F4B1B685BB11F4B1B686BB9FA
:104510001C4B1B68DA6AE36A9A4207D8194B1C6085
:1045200004E0184B1C601368012B26D0174A13684F
:1045300001331360E36A01229A4015490868024377
:104540000A6003EB83039A00211D12481044FFF711
:1045500050FCFFF711FD0C4B1B686BB1094B1B683E
:10456000DA6AE36A9A4207D20B4B4FF080521A6024
:10457000BFF34F8FBFF36F8F10BDFFF787FFD5E7F6
:10458000244100208C400020804100203041002048
:10459000344100209840002004ED00E010B50446AE
:1045A00090F8513033B9006BFFF7D6FE2046FFF785
:1045B000D3FE10BD012B0AD0022BFAD04FF05003CE
:1045C00083F31188BFF36F8FBFF34F8FFEE7FFF7C1
:1045D000C3FEEEE70F4B1B68D3B110B5FFF7AAFC83
:1045E0000D4BDB68DC68201DFFF729FC0B4A1368C4
:1045F000013B1360074A1368013B1360FFF7BCFCE3
:104600002046FFF7CBFF034B1B68002BE6D110BD04
:10461000704700BF2841002098410020244100201D
:1046200008B5FFF7D7FF064B1B68012BF9D9054BDF
:104630004FF080521A60BFF34F8FBFF36F8FF0E7D8
:104640009840002004ED00E070B504460E461D4B76
:104650001D681D4B18680430FFF7F1FB50B91A4B69
:104660001B68DA6A012303FA02F218490B6823EA8D
:1046700002030B60B4F1FF3F13D02C44124B1B68B4
:104680005C60A54216D8124B18680F4B19680431AC
:10469000FFF7BBFB0F4B1B68A34212D90D4B1C60ED
:1046A0000FE0002EE9D0084B196804310A48FFF7E3
:1046B000A0FB06E0094B1868034B19680431FFF7AB
:1046C000A4FB70BDAC4100208C4000203441002090
:1046D0009040002060410020844100209440002050
:1046E00070B586B00B9D0C9C45B94FF0500383F319
:1046F0001188BFF36F8FBFF34F8FFEE744B94FF0C0
:10470000500383F31188BFF36F8FBFF34F8FFEE722
:1047100054260496049E542E08D04FF0500383F381
:104720001188BFF36F8FBFF34F8FFEE7049E2563A1
:10473000022584F8515000250395029405AD01959A
:104740000A9D0095FFF75CFE2046FFF7D3FE059813
:1047500006B070BD2DE9F04385B007468846154682
:1047600099469000FFF76EFD08B306465420FFF708
:1047700069FD0446B8B10663E4B1002384F8513002
:10478000039302940D9B01930C9B00934B462A4686
:1047900041463846FFF734FE2046FFF7ABFE0120C6
:1047A00005B0BDE8F0833046FFF7D6FDE4E74FF0F3
:1047B000FF30F5E74FF0FF30F2E7000010B588B0AA
:1047C00000240594069407AA06A905A800F0CCF9D0
:1047D000059B0293069B019300942346079A0D497B
:1047E0000D48FFF77DFF08B908B010BD4FF050032A
:1047F00083F31188BFF36F8FBFF34F8F074B4FF0D9
:10480000FF321A60064B01221A60064B1C60FFF74C
:1048100033FCE9E7205600082146000860410020EB
:1048200080410020AC410020024A1368013313602C
:10483000704700BF2C410020F8B53A4B1B68002B95
:1048400069D1394B1D6801351D60C5B9374B1B68EF
:104850001B6843B14FF0500383F31188BFF36F8F90
:10486000BFF34F8FFEE7314A1168314B1868106073
:104870001960304A136801331360FFF7ABFD2E4B0C
:104880001B68AB423DD900242C4B1B68DB6A03EB51
:1048900083039A002A4B9B58012B00D90124294BF2
:1048A0001B68002B3CD001243AE001241F4B1B68FD
:1048B0001B6843B31D4B1B68DB68DE6873689D4251
:1048C00026D3371D3846FFF7BAFAB36A1BB106F193
:1048D0001800FFF7B4FAF36A01229A401A490868EF
:1048E00002430A6003EB83039A00394614481044DC
:1048F000FFF77FFAF26A114B1B68DB6A9A42D4D247
:10490000D4E70024D2E70C4B4FF0FF321A60BBE72C
:10491000094A1360B8E70D4A136801331360002495
:104920002046F8BD2C410020AC41002090400020E2
:104930009440002064410020604100208C40002011
:1049400098400020B0410020344100206841002000
:1049500038B5334B1B6843B94FF0500383F31188CC
:10496000BFF36F8FBFF34F8FFEE7FFF7E3FA2C4BD8
:104970001A68013A1A601B68002B4DD1294B1B683D
:1049800023B90024FFF7F8FA204638BD0024264B4F
:104990001B681BB3244BDB68DC6804F11800FFF7CD
:1049A0004EFA251D2846FFF74AFAE36A01229A408B
:1049B0001E49086802430A6003EB83039A002946F4
:1049C0001B481044FFF715FAE26A1A4B1B68DB6AB2
:1049D0009A42DCD3184B01221A60D8E70CB1FFF7DA
:1049E000F9FC164B1C6854B1FFF726FF10B1124BAF
:1049F00001221A60013CF7D1104B00221A600E4BC5
:104A00001B685BB10E4B4FF080521A60BFF34F8FA3
:104A1000BFF36F8F0124B5E70024B3E70024B1E7AB
:104A20002C410020244100206C4100203441002012
:104A3000984000208C400020B041002068410020B8
:104A400004ED00E010B5A8B104460F4B1B6843B15C
:104A50004FF0500383F31188BFF36F8FBFF34F8F75
:104A6000FEE7FFF7E1FE00212046FFF7EDFDFFF72F
:104A70006FFF38B9054B4FF080521A60BFF34F8F6C
:104A8000BFF36F8F10BD00BF2C41002004ED00E08C
:104A9000204B1B681BB1204B01221A6070471E4B34
:104AA00000221A601D4B1B68B3FA83F3DBB2C3F11B
:104AB0001F0303EB83018A0019498A5842B94FF05A
:104AC000500383F31188BFF36F8FBFF34F8FFEE75F
:104AD00010B413489A00D418A10001444C686468CB
:104AE0004C601A4491000831084484420BD003EB17
:104AF00083039A000A4B13445B68DA68094B1A6017
:104B00005DF8044B704761680548142202FB0302FC
:104B10005160ECE72C410020B041002034410020DE
:104B2000984000208C40002000B583B00022019204
:104B3000094B196B41F4800119631B6B03F480036B
:104B40000193019B05214620FDF73EF94620FDF724
:104B50006FF903B05DF804FB0038024008B501208E
:104B6000FFF730F9FBE70000034B0360034B0B60DA
:104B700080231360704700BFBC430020BC4100206D
:104B800070B58EB00F4C07AD26460FCE0FC596E818
:104B9000070085E80700002107A8FFF7DDF80A4BAA
:104BA00018606D461C340FCC0FC594E8070085E8EB
:104BB000070000216846FFF7CFF8044B18600EB0DD
:104BC00070BD00BFDC550008B8410020B441002092
:104BD00030B58BB00024059406940794089409948A
:104BE00001941E4B1A6B42F001021A631A6B02F019
:104BF00001020192019A02941A6B42F002021A63B6
:104C00001A6B02F002020292029A03941A6B42F0AB
:104C100080021A631A6B02F080020392039A0494D2
:104C20001A6B42F010021A631B6B03F0100304931B
:104C3000049B0B4D22464FF4E0512846FDF752FCF1
:104C40004FF4E0530593012306930794089405A9B4
:104C50002846FDF75DFB0BB030BD00BF00380240B9
:104C6000001C024008B50268034B9A4200D008BD00
:104C7000FDF786F8FBE700BF0010004072B6FEE7C4
:104C800000B595B03022002108A800F079FB002380
:104C9000039304930593069307930193204A116CA1
:104CA00041F080511164126C02F080520192019A1D
:104CB00002931C4B1A6842F480421A601B6803F48A
:104CC00080430293029B012308934FF4803309939E
:104CD00002230E934FF480020F9206221092A82214
:104CE000119212930423139308A8FDF70BFC98B9B3
:104CF0000F23039302230493002305934FF4A0533F
:104D000006934FF480530793052103A8FDF74AFE4D
:104D100020B915B05DF804FBFFF7B0FFFFF7AEFF59
:104D2000003802400070004008B5FDF70FF8FFF7AB
:104D3000A7FFFFF74DFFFFF7F7FE00F0BFF800F009
:104D40008BF9FFF71DFFFFF702F8FEE700B583B010
:104D5000002200920D4B596C41F480415964596C0A
:104D600001F48041009100990192196C41F0805149
:104D700019641B6C03F080530193019B0F216FF0AA
:104D80000100FDF721F803B05DF804FB0038024094
:104D900010B588B0002201463620FDF715F8362000
:104DA000FDF746F800240194144B1A6C42F01002EF
:104DB0001A641B6C03F010030193019B02A903A862
:104DC000FDF7C6FEFDF7A4FE43000D48A0FB03233C
:104DD0009B0C013B0B480C4A026040F2E732C26078
:104DE000436004618460FEF7CFF810B1012008B081
:104DF00010BD0448FDF746FFF9E700BF0038024048
:104E000083DE1B431044002000100040FEE7FEE755
:104E1000FEE7FEE7FEE7704708B50248FDF793FF9F
:104E200008BD00BF5844002008B50248FDF78BFFBD
:104E300008BD00BF5844002008B50248FDF783FFB5
:104E400008BD00BF5844002008B50248FDF77BFFAD
:104E500008BD00BF5844002008B50248FEF702FE16
:104E600008BD00BF0045002008B50248FDF76BFFF4
:104E700008BD00BF1044002008B50248FDF75AF9EC
:104E800008BD00BFA04400200120704708B500F015
:104E90004DFA162303604FF0FF3008BD08B54FF000
:104EA000FF31FFF7F3FFFEE7034AD2F8883043F4FF
:104EB0007003C2F88830704700ED00E000B591B093
:104EC00000230C930D930E930F930793089309936C
:104ED0000A930B9303930493059306930193029310
:104EE0003048314A0260A722426083604EF6602259
:104EF000C2600361436180238361FEF745F80028A7
:104F00003AD110A94FF4805341F8103D2548FEF7DF
:104F10003BF9002833D12348FEF761F8002831D14E
:104F20000423079350230893002309930A930B93B8
:104F300007A91C48FEF7F1F938BB002203920123B0
:104F400004930592069203A91648FEF7AFF8F8B944
:104F5000022303930493042203A91248FEF7A6F840
:104F6000C8B900230193029301A90E48FEF7CAFABB
:104F7000A0B911B05DF804FBFFF780FEC1E7FFF7B1
:104F80007DFEC8E7FFF77AFECAE7FFF777FED4E7B2
:104F9000FFF774FEDCE7FFF771FEE2E7FFF76EFE56
:104FA000E7E700BF584400200000014010B588B07A
:104FB0000023039304930593069307930268244BFD
:104FC0009A4201D008B010BD0024019403F59C332F
:104FD0005A6C42F001025A645A6C02F001020192CA
:104FE000019A02941A6B42F010021A631B6B03F0D1
:104FF00010030293029B4FF428530393022304935C
:105000000123079303A91348FDF782F922460521DE
:105010001820FCF7D9FE1820FCF70AFF22460521CC
:105020001920FCF7D1FE1920FCF702FF22460521CA
:105030001A20FCF7C9FE1A20FCF7FAFE22460521C9
:105040001B20FCF7C1FE1B20FCF7F2FEBAE700BFF5
:10505000000001400010024008B50A480A4B0360F6
:105060004FF4E133436000238360C36003610C228B
:1050700042618361C361FEF795FB00B908BDFFF78C
:10508000FDFDFBE700450020001001402DE9F04147
:1050900088B0002303930493059306930793026853
:1050A00003F1804303F588339A4202D008B0BDE88B
:1050B000F08104460025009503F594335A6C42F0C4
:1050C00010025A645A6C02F010020092009A019584
:1050D0001A6B42F002021A631A6B02F0020201928A
:1050E000019A02951A6B42F001021A631B6B03F0DE
:1050F00001030293029B802303934FF00208CDF833
:105100001080032706970726079603A91848FDF77E
:10511000FFF84FF400730393CDF8108005950697C0
:10512000079603A91348FDF7F3F81348134B0360E0
:105130004FF00063436040238360C5604FF4806399
:10514000036145618561C56105624562FCF7FAFE50
:1051500058B9094B63639C63002205212520FCF7A5
:1051600033FE2520FCF764FEA0E7FFF787FDF0E79C
:105170000004024000000240A0440020B864024045
:10518000DFF834D00D480E490E4A002302E0D4580F
:10519000C4500433C4188C42F9D30B4A0B4C00237F
:1051A00001E013600432A242FBD3FFF77DFE00F062
:1051B000C3F8FFF7B9FD704700000220000000208F
:1051C0004404002064570008440400208045002067
:1051D000FEE7000030B583B01A4C01224FF4805135
:1051E0002046FDF77FF9184D00212846FEF7D2F83A
:1051F00004212846FEF7CEF800224FF480512046C5
:10520000FDF770F9114B1B68ADF804301B0C8DF8DD
:1052100006300F4C032201A92046FEF7F3FA0122C3
:105220000C492046FEF771FD094B93F83E100A4ADF
:10523000117093F83D20094B1A706420FEF7C2FDEF
:10524000F2E700BF001C024058440020145600083A
:1052500000450020544500205545002056450020BB
:10526000F8B51D4B834200D0F8BD01224FF4806198
:105270001A48FDF737F9184D00212846FDF747FD7C
:10528000174C206004212846FDF741FD0546154BCB
:10529000186020680028E7D0FBF7DCF806460F46C8
:1052A0000BA3D3E90023FBF74FF9FBF75FFB0E4B92
:1052B00018602846FBF7CEF832463B46FBF76EFAFD
:1052C000FBF754FB094B1860CEE700BFAFF300803B
:1052D000FCA9F1D24D62503F58440020001C02400E
:1052E00050450020484500204C4500204445002002
:1052F00008B5074B834200D008BD4FF40061054854
:10530000FDF7F6F8012204490148FEF7FEFCF3E739
:1053100000450020001C02405445002008B506202E
:1053200000F0A4F80120FFF7B9FD00BF014B186899
:10533000704700BF1000002070B50D4E0D4D761B5C
:10534000B61006D00024013455F8043B9847A64215
:10535000F9D1094E094D761B00F034F9B61006D08C
:105360000024013455F8043B9847A642F9D170BD9A
:105370005857000858570008605700085857000849
:10538000F0B4860743D0541E002A3ED0CAB203466A
:1053900002E014F1FF3438D303F8012B9D07F8D154
:1053A000032C2BD9CDB245EA05250F2C45EA05453E
:1053B00016D9A4F110073F0903F1200606EB0716E2
:1053C00003F1100242E9045542E902551032B2429B
:1053D000F8D104F00F040137032C03EB07130DD9A8
:1053E0001E462246043A032A46F8045BFAD8221FD6
:1053F00022F003020432134404F003042CB1C9B2B6
:105400001C4403F8011B9C42FBD1F0BC70471446BE
:105410000346C5E71F2938B522D8D0F8DC32054647
:105420000C466BB153F8212052B1012A12D0511C05
:1054300012D00025204643F824509047284638BD16
:10544000284600F02FF8224601462846BDE838409D
:1054500000F014B8002038BD16230360012038BDC9
:10546000162303604FF0FF3038BD00BF024B0146EA
:105470001868FFF7CFBF00BF1000002038B50B46FB
:10548000074C05461146184600232360FFF7FEFC33
:10549000431C00D038BD2368002BFBD02B6038BDE7
:1054A0007C450020FFF7F0BC024B13B1024800F02E
:1054B00005B8704700000000C954000800230146E9
:1054C0001A46184600F01EB838B50A4C0A4D641B3F
:1054D000A4100AD004F18043013B05EB8305013C95
:1054E00055F804399847002CF9D1BDE8384000F050
:1054F0006FB800BF6457000860570008704700BFCE
:10550000704700BF2DE9F8432B4D064628689846A2
:105510000F469146FFF7F2FF284B1C68D4F848313C
:10552000002B3DD05A681F2A0DDC02F1010C16BB7E
:105530000232C3F804C0286843F82270FFF7E0FF86
:105540000020BDE8F8831E4B7BB34FF4C870AFF367
:105550000080034648B3D4F848210021C0E9002167
:105560004FF0010CC4F848010A46C0F88811C0F891
:105570008C11002EDCD003EB82010124C1F888904D
:10558000D3F8880194402043022EC3F88801C1F863
:105590000881CDD1D3F88C110C43C3F88C41C7E7F7
:1055A00004F5A673C4F84831BCE72868FFF7A8FFE4
:1055B0004FF0FF30C5E700BF4004002058560008F8
:1055C00000000000F8B500BFF8BC08BC9E4670475C
:0C55D000F8B500BFF8BC08BC9E46704750
:1055DC00345600085D4B000800000000000000007D
:1055EC0080000000000000000000000028560008A9
:1055FC00D5510008000000000000000080000000F1
:10560C000000000000000000FFFFFF000006101665
:10561C000006101649444C4500000000636170748C
:10562C007572655461736B0064656661756C745456
:10563C0061736B0000000000000000000102030415
:10564C0006070809000000000102030418000020EE
:10565C0008B10181B0B000840000000008B10181E4
:10566C00B0B000840000000008B10181B0B000842B
:04567C00000000002A
:10568000BCB3FF7F010000001CB7FF7FB0A9028000
:10569000B8B7FF7FB0B0A88008B8FF7F0100000056
:1056A00014B8FF7FB0B0AA804CB8FF7FAE71B28053
:1056B0000CB9FF7F0100000008B9FF7FAB3F3880C5
:1056C00060B9FF7F010000006CB9FF7FB0B0AA8015
:1056D000A8B9FF7F010000004CBAFF7FAB0EB2807B
:1056E000B4BAFF7FB0AF088080BDFF7F010000002B
:1056F00084BDFF7FAC3F0380FCBFFF7F0100000043
:10570000D8C1FF7F00840480ECC1FF7F010000004E
:10571000E8C1FF7FB0AD0480A4C4FF7FB0A80380C0
:10572000C4C4FF7F44FFFF7FC8C4FF7F48FFFF7FE3
:10573000D4C4FF7F010000009CFAFF7FB0A9028063
:1057400020FBFF7FAB08B180A8FBFF7F10FFFF7F2E
:08575000CCFBFF7F010000000B
:08575800A9540008B501000886
:0457600091010008AB
:105764000100000010000000AAAAAAAA0024F40064
:1057740018000020000000000000000004030020C6
:105784006C030020D403002000000000000000008F
:105794000000000000000000000000000000000005
:1057A40000000000000000000000000000000000F5
:1057B40000000000000000000000000000000000E5
:1057C40000000000000000000000000000000000D5
:1057D40000000000000000000000000000000000C5
:1057E40000000000000000000000000000000000B5
:1057F40000000000000000000000000000000000A5
:105804000000000000000000000000000000000094
:105814000000000000000000000000000000000084
:1058240001000000000000000E33CDAB34126DE621
:10583400ECDE05000B00000000000000000000008A
:105844000000000000000000000000000000000054
:105854000000000000000000000000000000000044
:105864000000000000000000000000000000000034
:105874000000000000000000000000000000000024
:045BA4005845002040
:04000005080051811D
:00000001FF
